{
  "contractName": "ExampleFlashSwap",
  "abi": [
    {
      "inputs": [
        {
          "internalType": "address",
          "name": "_factory",
          "type": "address"
        },
        {
          "internalType": "address",
          "name": "_factoryV1",
          "type": "address"
        },
        {
          "internalType": "address",
          "name": "router",
          "type": "address"
        }
      ],
      "stateMutability": "nonpayable",
      "type": "constructor"
    },
    {
      "stateMutability": "payable",
      "type": "receive"
    },
    {
      "inputs": [
        {
          "internalType": "address",
          "name": "sender",
          "type": "address"
        },
        {
          "internalType": "uint256",
          "name": "amount0",
          "type": "uint256"
        },
        {
          "internalType": "uint256",
          "name": "amount1",
          "type": "uint256"
        },
        {
          "internalType": "bytes",
          "name": "data",
          "type": "bytes"
        }
      ],
      "name": "pancakeCall",
      "outputs": [],
      "stateMutability": "nonpayable",
      "type": "function"
    }
  ],
  "bytecode": "0x60e060405234801561001057600080fd5b5060405161162e38038061162e8339818101604052606081101561003357600080fd5b5080516020808301516040938401516001600160601b0319606083811b821660805285901b1660a05284516315ab88c960e31b815294519394919390926001600160a01b0384169263ad5c46489260048083019392829003018186803b15801561009c57600080fd5b505afa1580156100b0573d6000803e3d6000fd5b505050506040513d60208110156100c657600080fd5b50516001600160601b031960609190911b1660c05250505060805160601c60a05160601c60c05160601c6114ee610140600039806102e15280610316528061037552806103de528061044a528061078b52806108545280610a215250806101f652806107445280610b345250806104e552506114ee6000f3fe6080604052600436106100225760003560e01c8063848008121461002e57610029565b3661002957005b600080fd5b34801561003a57600080fd5b506100d46004803603608081101561005157600080fd5b73ffffffffffffffffffffffffffffffffffffffff823516916020810135916040820135919081019060808101606082013564010000000081111561009557600080fd5b8201836020820111156100a757600080fd5b803590602001918460018302840111640100000000831117156100c957600080fd5b5090925090506100d6565b005b604080516002808252606080830184529260208301908036833701905050905060008060003373ffffffffffffffffffffffffffffffffffffffff16630dfe16816040518163ffffffff1660e01b815260040160206040518083038186803b15801561014157600080fd5b505afa158015610155573d6000803e3d6000fd5b505050506040513d602081101561016b57600080fd5b5051604080517fd21220a70000000000000000000000000000000000000000000000000000000081529051919250600091339163d21220a7916004808301926020929190829003018186803b1580156101c357600080fd5b505afa1580156101d7573d6000803e3d6000fd5b505050506040513d60208110156101ed57600080fd5b5051905061021c7f00000000000000000000000000000000000000000000000000000000000000008383610cdc565b73ffffffffffffffffffffffffffffffffffffffff163373ffffffffffffffffffffffffffffffffffffffff161461025057fe5b88158061025b575087155b61026157fe5b881561026d578061026f565b815b8560008151811061027c57fe5b73ffffffffffffffffffffffffffffffffffffffff9092166020928302919091019091015288156102ad57816102af565b805b856001815181106102bc57fe5b73ffffffffffffffffffffffffffffffffffffffff92831660209182029290920101527f00000000000000000000000000000000000000000000000000000000000000008116908316146103105788610312565b875b93507f000000000000000000000000000000000000000000000000000000000000000073ffffffffffffffffffffffffffffffffffffffff168273ffffffffffffffffffffffffffffffffffffffff161461036d578761036f565b885b925050507f000000000000000000000000000000000000000000000000000000000000000073ffffffffffffffffffffffffffffffffffffffff16836000815181106103b757fe5b602002602001015173ffffffffffffffffffffffffffffffffffffffff16148061044057507f000000000000000000000000000000000000000000000000000000000000000073ffffffffffffffffffffffffffffffffffffffff168360018151811061042057fe5b602002602001015173ffffffffffffffffffffffffffffffffffffffff16145b61044657fe5b60007f000000000000000000000000000000000000000000000000000000000000000073ffffffffffffffffffffffffffffffffffffffff168460008151811061048c57fe5b602002602001015173ffffffffffffffffffffffffffffffffffffffff16146104c957836000815181106104bc57fe5b60200260200101516104df565b836001815181106104d657fe5b60200260200101515b905060007f000000000000000000000000000000000000000000000000000000000000000073ffffffffffffffffffffffffffffffffffffffff166306f2bf62836040518263ffffffff1660e01b8152600401808273ffffffffffffffffffffffffffffffffffffffff1673ffffffffffffffffffffffffffffffffffffffff16815260200191505060206040518083038186803b15801561058057600080fd5b505afa158015610594573d6000803e3d6000fd5b505050506040513d60208110156105aa57600080fd5b5051905083156109c3576000878760208110156105c657600080fd5b50604080517f095ea7b300000000000000000000000000000000000000000000000000000000815273ffffffffffffffffffffffffffffffffffffffff8581166004830152602482018990529151923593509085169163095ea7b3916044808201926020929091908290030181600087803b15801561064457600080fd5b505af1158015610658573d6000803e3d6000fd5b505050506040513d602081101561066e57600080fd5b5050604080517f95e3c50b00000000000000000000000000000000000000000000000000000000815260048101879052602481018390527fffffffffffffffffffffffffffffffffffffffffffffffffffffffffffffffff6044820152905160009173ffffffffffffffffffffffffffffffffffffffff8516916395e3c50b9160648082019260209290919082900301818787803b15801561070f57600080fd5b505af1158015610723573d6000803e3d6000fd5b505050506040513d602081101561073957600080fd5b50519050600061076a7f0000000000000000000000000000000000000000000000000000000000000000888a610dc7565b60008151811061077657fe5b6020026020010151905080821161078957fe5b7f000000000000000000000000000000000000000000000000000000000000000073ffffffffffffffffffffffffffffffffffffffff1663d0e30db0826040518263ffffffff1660e01b81526004016000604051808303818588803b1580156107f157600080fd5b505af1158015610805573d6000803e3d6000fd5b5050604080517fa9059cbb00000000000000000000000000000000000000000000000000000000815233600482015260248101869052905173ffffffffffffffffffffffffffffffffffffffff7f000000000000000000000000000000000000000000000000000000000000000016945063a9059cbb9350604480830193506020928290030181600087803b15801561089d57600080fd5b505af11580156108b1573d6000803e3d6000fd5b505050506040513d60208110156108c757600080fd5b50516108cf57fe5b6040805160008082526020820190925273ffffffffffffffffffffffffffffffffffffffff8f1690838503906040518082805190602001908083835b6020831061094857805182527fffffffffffffffffffffffffffffffffffffffffffffffffffffffffffffffe0909201916020918201910161090b565b6001836020036101000a03801982511681845116808217855250505050505090500191505060006040518083038185875af1925050503d80600081146109aa576040519150601f19603f3d011682016040523d82523d6000602084013e6109af565b606091505b50509050806109ba57fe5b50505050610cd0565b6000878760208110156109d557600080fd5b50604080517f2e1a7d4d0000000000000000000000000000000000000000000000000000000081526004810187905290519135925073ffffffffffffffffffffffffffffffffffffffff7f00000000000000000000000000000000000000000000000000000000000000001691632e1a7d4d9160248082019260009290919082900301818387803b158015610a6957600080fd5b505af1158015610a7d573d6000803e3d6000fd5b5050505060008273ffffffffffffffffffffffffffffffffffffffff1663f39b5b9b86847fffffffffffffffffffffffffffffffffffffffffffffffffffffffffffffffff6040518463ffffffff1660e01b815260040180838152602001828152602001925050506020604051808303818588803b158015610afe57600080fd5b505af1158015610b12573d6000803e3d6000fd5b50505050506040513d6020811015610b2957600080fd5b505190506000610b5a7f0000000000000000000000000000000000000000000000000000000000000000878a610dc7565b600081518110610b6657fe5b60200260200101519050808211610b7957fe5b604080517fa9059cbb00000000000000000000000000000000000000000000000000000000815233600482015260248101839052905173ffffffffffffffffffffffffffffffffffffffff87169163a9059cbb9160448083019260209291908290030181600087803b158015610bee57600080fd5b505af1158015610c02573d6000803e3d6000fd5b505050506040513d6020811015610c1857600080fd5b5051610c2057fe5b604080517fa9059cbb00000000000000000000000000000000000000000000000000000000815273ffffffffffffffffffffffffffffffffffffffff8f81166004830152838503602483015291519187169163a9059cbb916044808201926020929091908290030181600087803b158015610c9a57600080fd5b505af1158015610cae573d6000803e3d6000fd5b505050506040513d6020811015610cc457600080fd5b5051610ccc57fe5b5050505b50505050505050505050565b6000806000610ceb8585610f6a565b604080517fffffffffffffffffffffffffffffffffffffffff000000000000000000000000606094851b811660208084019190915293851b81166034830152825160288184030181526048830184528051908501207fff0000000000000000000000000000000000000000000000000000000000000060688401529a90941b9093166069840152607d8301989098527f8245a59da232a7e2b0a5fadbbf67fd1e29d0dc12f0bbcfff7455b7f1e480f5c4609d808401919091528851808403909101815260bd909201909752805196019590952095945050505050565b6060600282511015610e3a57604080517f08c379a000000000000000000000000000000000000000000000000000000000815260206004820152601c60248201527f50616e63616b654c6962726172793a20494e56414c49445f5041544800000000604482015290519081900360640190fd5b815167ffffffffffffffff81118015610e5257600080fd5b50604051908082528060200260200182016040528015610e7c578160200160208202803683370190505b5090508281600183510381518110610e9057fe5b602090810291909101015281517fffffffffffffffffffffffffffffffffffffffffffffffffffffffffffffffff015b8015610f6257600080610efd87866001860381518110610edc57fe5b6020026020010151878681518110610ef057fe5b60200260200101516110bd565b91509150610f1f848481518110610f1057fe5b602002602001015183836111b1565b846001850381518110610f2e57fe5b602090810291909101015250507fffffffffffffffffffffffffffffffffffffffffffffffffffffffffffffffff01610ec0565b509392505050565b6000808273ffffffffffffffffffffffffffffffffffffffff168473ffffffffffffffffffffffffffffffffffffffff161415610ff2576040517f08c379a00000000000000000000000000000000000000000000000000000000081526004018080602001828103825260238152602001806114706023913960400191505060405180910390fd5b8273ffffffffffffffffffffffffffffffffffffffff168473ffffffffffffffffffffffffffffffffffffffff161061102c57828461102f565b83835b909250905073ffffffffffffffffffffffffffffffffffffffff82166110b657604080517f08c379a000000000000000000000000000000000000000000000000000000000815260206004820152601c60248201527f50616e63616b654c6962726172793a205a45524f5f4144445245535300000000604482015290519081900360640190fd5b9250929050565b60008060006110cc8585610f6a565b5090506110da868686610cdc565b506000806110e9888888610cdc565b73ffffffffffffffffffffffffffffffffffffffff16630902f1ac6040518163ffffffff1660e01b815260040160606040518083038186803b15801561112e57600080fd5b505afa158015611142573d6000803e3d6000fd5b505050506040513d606081101561115857600080fd5b5080516020909101516dffffffffffffffffffffffffffff918216935016905073ffffffffffffffffffffffffffffffffffffffff8781169084161461119f5780826111a2565b81815b90999098509650505050505050565b600080841161120b576040517f08c379a000000000000000000000000000000000000000000000000000000000815260040180806020018281038252602a815260200180611446602a913960400191505060405180910390fd5b60008311801561121b5750600082115b611270576040517f08c379a00000000000000000000000000000000000000000000000000000000081526004018080602001828103825260268152602001806114936026913960400191505060405180910390fd5b60006112946103e8611288868863ffffffff6112d516565b9063ffffffff6112d516565b905060006112ae6103e6611288868963ffffffff61136116565b90506112cb60018284816112be57fe5b049063ffffffff6113d316565b9695505050505050565b60008115806112f0575050808202828282816112ed57fe5b04145b61135b57604080517f08c379a000000000000000000000000000000000000000000000000000000000815260206004820152601460248201527f64732d6d6174682d6d756c2d6f766572666c6f77000000000000000000000000604482015290519081900360640190fd5b92915050565b8082038281111561135b57604080517f08c379a000000000000000000000000000000000000000000000000000000000815260206004820152601560248201527f64732d6d6174682d7375622d756e646572666c6f770000000000000000000000604482015290519081900360640190fd5b8082018281101561135b57604080517f08c379a000000000000000000000000000000000000000000000000000000000815260206004820152601460248201527f64732d6d6174682d6164642d6f766572666c6f77000000000000000000000000604482015290519081900360640190fdfe50616e63616b654c6962726172793a20494e53554646494349454e545f4f55545055545f414d4f554e5450616e63616b654c6962726172793a204944454e544943414c5f41444452455353455350616e63616b654c6962726172793a20494e53554646494349454e545f4c4951554944495459a26469706673582212207d0f81b740671917e28e90ee571e9907659df1b30b08e687f7ad5d242cb55a0364736f6c63430006060033",
  "immutableReferences": {
    "3715": [
      {
        "length": 32,
        "start": 1253
      }
    ],
    "3717": [
      {
        "length": 32,
        "start": 502
      },
      {
        "length": 32,
        "start": 1860
      },
      {
        "length": 32,
        "start": 2868
      }
    ],
    "3719": [
      {
        "length": 32,
        "start": 737
      },
      {
        "length": 32,
        "start": 790
      },
      {
        "length": 32,
        "start": 885
      },
      {
        "length": 32,
        "start": 990
      },
      {
        "length": 32,
        "start": 1098
      },
      {
        "length": 32,
        "start": 1931
      },
      {
        "length": 32,
        "start": 2132
      },
      {
        "length": 32,
        "start": 2593
      }
    ]
  },
  "source": "pragma solidity =0.6.6;\n\nimport '../interfaces/IPancakeCallee.sol';\n\nimport '../libraries/PancakeLibrary.sol';\nimport '../interfaces/V1/IUniswapV1Factory.sol';\nimport '../interfaces/V1/IUniswapV1Exchange.sol';\nimport '../interfaces/IPancakeRouter01.sol';\nimport '../interfaces/IERC20.sol';\nimport '../interfaces/IWETH.sol';\n\ncontract ExampleFlashSwap is IPancakeCallee {\n    IUniswapV1Factory immutable factoryV1;\n    address immutable factory;\n    IWETH immutable WETH;\n\n    constructor(address _factory, address _factoryV1, address router) public {\n        factoryV1 = IUniswapV1Factory(_factoryV1);\n        factory = _factory;\n        WETH = IWETH(IPancakeRouter01(router).WETH());\n    }\n\n    // needs to accept ETH from any V1 exchange and WETH. ideally this could be enforced, as in the router,\n    // but it's not possible because it requires a call to the v1 factory, which takes too much gas\n    receive() external payable {}\n\n    // gets tokens/WETH via a V2 flash swap, swaps for the ETH/tokens on V1, repays V2, and keeps the rest!\n    function pancakeCall(address sender, uint amount0, uint amount1, bytes calldata data) external override {\n        address[] memory path = new address[](2);\n        uint amountToken;\n        uint amountETH;\n        { // scope for token{0,1}, avoids stack too deep errors\n        address token0 = IPancakePair(msg.sender).token0();\n        address token1 = IPancakePair(msg.sender).token1();\n        assert(msg.sender == PancakeLibrary.pairFor(factory, token0, token1)); // ensure that msg.sender is actually a V2 pair\n        assert(amount0 == 0 || amount1 == 0); // this strategy is unidirectional\n        path[0] = amount0 == 0 ? token0 : token1;\n        path[1] = amount0 == 0 ? token1 : token0;\n        amountToken = token0 == address(WETH) ? amount1 : amount0;\n        amountETH = token0 == address(WETH) ? amount0 : amount1;\n        }\n\n        assert(path[0] == address(WETH) || path[1] == address(WETH)); // this strategy only works with a V2 WETH pair\n        IERC20 token = IERC20(path[0] == address(WETH) ? path[1] : path[0]);\n        IUniswapV1Exchange exchangeV1 = IUniswapV1Exchange(factoryV1.getExchange(address(token))); // get V1 exchange\n\n        if (amountToken > 0) {\n            (uint minETH) = abi.decode(data, (uint)); // slippage parameter for V1, passed in by caller\n            token.approve(address(exchangeV1), amountToken);\n            uint amountReceived = exchangeV1.tokenToEthSwapInput(amountToken, minETH, uint(-1));\n            uint amountRequired = PancakeLibrary.getAmountsIn(factory, amountToken, path)[0];\n            assert(amountReceived > amountRequired); // fail if we didn't get enough ETH back to repay our flash loan\n            WETH.deposit{value: amountRequired}();\n            assert(WETH.transfer(msg.sender, amountRequired)); // return WETH to V2 pair\n            (bool success,) = sender.call{value: amountReceived - amountRequired}(new bytes(0)); // keep the rest! (ETH)\n            assert(success);\n        } else {\n            (uint minTokens) = abi.decode(data, (uint)); // slippage parameter for V1, passed in by caller\n            WETH.withdraw(amountETH);\n            uint amountReceived = exchangeV1.ethToTokenSwapInput{value: amountETH}(minTokens, uint(-1));\n            uint amountRequired = PancakeLibrary.getAmountsIn(factory, amountETH, path)[0];\n            assert(amountReceived > amountRequired); // fail if we didn't get enough tokens back to repay our flash loan\n            assert(token.transfer(msg.sender, amountRequired)); // return tokens to V2 pair\n            assert(token.transfer(sender, amountReceived - amountRequired)); // keep the rest! (tokens)\n        }\n    }\n}\n",
  "sourcePath": "/Users/tobi/Projects/pancake/pancake-swap-periphery/contracts/examples/ExampleFlashSwap.sol",
  "compiler": {
    "name": "solc",
    "version": "0.6.6+commit.6c089d02.Emscripten.clang"
  },
  "schemaVersion": "3.3.4",
  "updatedAt": "2021-04-07T04:09:49.593Z",
  "devdoc": {
    "methods": {}
  },
  "userdoc": {
    "methods": {}
  }
}